{
  "contractName": "EventWager",
  "abi": [
    {
      "inputs": [
        {
          "internalType": "contract Token",
          "name": "_token",
          "type": "address"
        }
      ],
      "stateMutability": "nonpayable",
      "type": "constructor"
    },
    {
      "anonymous": false,
      "inputs": [],
      "name": "BettingClosed",
      "type": "event"
    },
    {
      "anonymous": false,
      "inputs": [
        {
          "indexed": true,
          "internalType": "address",
          "name": "user",
          "type": "address"
        }
      ],
      "name": "PassOwnership",
      "type": "event"
    },
    {
      "anonymous": false,
      "inputs": [
        {
          "indexed": false,
          "internalType": "uint256",
          "name": "winningSide",
          "type": "uint256"
        },
        {
          "indexed": false,
          "internalType": "uint256",
          "name": "amount",
          "type": "uint256"
        }
      ],
      "name": "RoundEnd",
      "type": "event"
    },
    {
      "anonymous": false,
      "inputs": [],
      "name": "RoundStart",
      "type": "event"
    },
    {
      "anonymous": false,
      "inputs": [
        {
          "indexed": true,
          "internalType": "address",
          "name": "user",
          "type": "address"
        },
        {
          "indexed": false,
          "internalType": "uint256",
          "name": "amount",
          "type": "uint256"
        }
      ],
      "name": "TokensRequested",
      "type": "event"
    },
    {
      "anonymous": false,
      "inputs": [
        {
          "indexed": true,
          "internalType": "address",
          "name": "user",
          "type": "address"
        },
        {
          "indexed": false,
          "internalType": "uint256",
          "name": "amount",
          "type": "uint256"
        }
      ],
      "name": "Wager",
      "type": "event"
    },
    {
      "anonymous": false,
      "inputs": [
        {
          "indexed": true,
          "internalType": "address",
          "name": "user",
          "type": "address"
        },
        {
          "indexed": false,
          "internalType": "uint256",
          "name": "amount",
          "type": "uint256"
        }
      ],
      "name": "Withdraw",
      "type": "event"
    },
    {
      "inputs": [],
      "name": "currentPot",
      "outputs": [
        {
          "internalType": "uint256",
          "name": "",
          "type": "uint256"
        }
      ],
      "stateMutability": "view",
      "type": "function",
      "constant": true
    },
    {
      "inputs": [],
      "name": "owner",
      "outputs": [
        {
          "internalType": "address",
          "name": "",
          "type": "address"
        }
      ],
      "stateMutability": "view",
      "type": "function",
      "constant": true
    },
    {
      "inputs": [],
      "name": "potAgainst",
      "outputs": [
        {
          "internalType": "uint256",
          "name": "",
          "type": "uint256"
        }
      ],
      "stateMutability": "view",
      "type": "function",
      "constant": true
    },
    {
      "inputs": [],
      "name": "potFor",
      "outputs": [
        {
          "internalType": "uint256",
          "name": "",
          "type": "uint256"
        }
      ],
      "stateMutability": "view",
      "type": "function",
      "constant": true
    },
    {
      "inputs": [],
      "name": "state",
      "outputs": [
        {
          "internalType": "enum EventWager.States",
          "name": "",
          "type": "uint8"
        }
      ],
      "stateMutability": "view",
      "type": "function",
      "constant": true
    },
    {
      "inputs": [
        {
          "internalType": "uint256",
          "name": "",
          "type": "uint256"
        }
      ],
      "name": "usersAgainst",
      "outputs": [
        {
          "internalType": "address",
          "name": "userAddress",
          "type": "address"
        },
        {
          "internalType": "uint256",
          "name": "currentWager",
          "type": "uint256"
        },
        {
          "internalType": "uint256",
          "name": "totalWinnings",
          "type": "uint256"
        },
        {
          "internalType": "uint256",
          "name": "totalLosses",
          "type": "uint256"
        },
        {
          "internalType": "uint256",
          "name": "pendingWinnings",
          "type": "uint256"
        },
        {
          "internalType": "uint256",
          "name": "side",
          "type": "uint256"
        },
        {
          "internalType": "bool",
          "name": "isDeposited",
          "type": "bool"
        }
      ],
      "stateMutability": "view",
      "type": "function",
      "constant": true
    },
    {
      "inputs": [
        {
          "internalType": "uint256",
          "name": "",
          "type": "uint256"
        }
      ],
      "name": "usersFor",
      "outputs": [
        {
          "internalType": "address",
          "name": "userAddress",
          "type": "address"
        },
        {
          "internalType": "uint256",
          "name": "currentWager",
          "type": "uint256"
        },
        {
          "internalType": "uint256",
          "name": "totalWinnings",
          "type": "uint256"
        },
        {
          "internalType": "uint256",
          "name": "totalLosses",
          "type": "uint256"
        },
        {
          "internalType": "uint256",
          "name": "pendingWinnings",
          "type": "uint256"
        },
        {
          "internalType": "uint256",
          "name": "side",
          "type": "uint256"
        },
        {
          "internalType": "bool",
          "name": "isDeposited",
          "type": "bool"
        }
      ],
      "stateMutability": "view",
      "type": "function",
      "constant": true
    },
    {
      "inputs": [
        {
          "internalType": "address",
          "name": "payee",
          "type": "address"
        },
        {
          "internalType": "uint256",
          "name": "_amount",
          "type": "uint256"
        }
      ],
      "name": "requestTokens",
      "outputs": [],
      "stateMutability": "nonpayable",
      "type": "function"
    },
    {
      "inputs": [
        {
          "internalType": "string",
          "name": "side1",
          "type": "string"
        },
        {
          "internalType": "string",
          "name": "side2",
          "type": "string"
        }
      ],
      "name": "beginRound",
      "outputs": [],
      "stateMutability": "nonpayable",
      "type": "function"
    },
    {
      "inputs": [],
      "name": "getPot",
      "outputs": [
        {
          "internalType": "uint256",
          "name": "",
          "type": "uint256"
        }
      ],
      "stateMutability": "view",
      "type": "function",
      "constant": true
    },
    {
      "inputs": [],
      "name": "getPotFor",
      "outputs": [
        {
          "internalType": "uint256",
          "name": "",
          "type": "uint256"
        }
      ],
      "stateMutability": "view",
      "type": "function",
      "constant": true
    },
    {
      "inputs": [],
      "name": "getPotAgainst",
      "outputs": [
        {
          "internalType": "uint256",
          "name": "",
          "type": "uint256"
        }
      ],
      "stateMutability": "view",
      "type": "function",
      "constant": true
    },
    {
      "inputs": [
        {
          "internalType": "uint256",
          "name": "side",
          "type": "uint256"
        },
        {
          "internalType": "uint256",
          "name": "_amount",
          "type": "uint256"
        }
      ],
      "name": "wager",
      "outputs": [],
      "stateMutability": "payable",
      "type": "function",
      "payable": true
    },
    {
      "inputs": [
        {
          "internalType": "uint256",
          "name": "winningSide",
          "type": "uint256"
        }
      ],
      "name": "endRound",
      "outputs": [],
      "stateMutability": "nonpayable",
      "type": "function"
    },
    {
      "inputs": [
        {
          "internalType": "address",
          "name": "_address",
          "type": "address"
        }
      ],
      "name": "getWager",
      "outputs": [
        {
          "internalType": "uint256",
          "name": "",
          "type": "uint256"
        }
      ],
      "stateMutability": "view",
      "type": "function",
      "constant": true
    },
    {
      "inputs": [
        {
          "internalType": "address",
          "name": "_address",
          "type": "address"
        }
      ],
      "name": "getTotalWinnings",
      "outputs": [
        {
          "internalType": "uint256",
          "name": "",
          "type": "uint256"
        }
      ],
      "stateMutability": "view",
      "type": "function",
      "constant": true
    },
    {
      "inputs": [],
      "name": "closeBetting",
      "outputs": [],
      "stateMutability": "nonpayable",
      "type": "function"
    },
    {
      "inputs": [
        {
          "internalType": "address",
          "name": "_address",
          "type": "address"
        }
      ],
      "name": "isDeposited",
      "outputs": [
        {
          "internalType": "bool",
          "name": "",
          "type": "bool"
        }
      ],
      "stateMutability": "view",
      "type": "function",
      "constant": true
    },
    {
      "inputs": [
        {
          "internalType": "uint256",
          "name": "_currentWager",
          "type": "uint256"
        },
        {
          "internalType": "uint256",
          "name": "_sidePot",
          "type": "uint256"
        },
        {
          "internalType": "uint256",
          "name": "_totalPot",
          "type": "uint256"
        }
      ],
      "name": "calcReward",
      "outputs": [
        {
          "internalType": "uint256",
          "name": "",
          "type": "uint256"
        }
      ],
      "stateMutability": "view",
      "type": "function",
      "constant": true
    },
    {
      "inputs": [
        {
          "internalType": "address",
          "name": "_address",
          "type": "address"
        }
      ],
      "name": "getUserSide",
      "outputs": [
        {
          "internalType": "uint256",
          "name": "",
          "type": "uint256"
        }
      ],
      "stateMutability": "view",
      "type": "function",
      "constant": true
    },
    {
      "inputs": [],
      "name": "getSides",
      "outputs": [
        {
          "internalType": "string",
          "name": "",
          "type": "string"
        }
      ],
      "stateMutability": "view",
      "type": "function",
      "constant": true
    },
    {
      "inputs": [],
      "name": "getOwner",
      "outputs": [
        {
          "internalType": "address",
          "name": "",
          "type": "address"
        }
      ],
      "stateMutability": "view",
      "type": "function",
      "constant": true
    },
    {
      "inputs": [
        {
          "internalType": "address",
          "name": "_address",
          "type": "address"
        }
      ],
      "name": "passOwnership",
      "outputs": [],
      "stateMutability": "nonpayable",
      "type": "function"
    },
    {
      "inputs": [],
      "name": "getFor",
      "outputs": [
        {
          "internalType": "uint256",
          "name": "",
          "type": "uint256"
        }
      ],
      "stateMutability": "view",
      "type": "function",
      "constant": true
    },
    {
      "inputs": [],
      "name": "getAgainst",
      "outputs": [
        {
          "internalType": "uint256",
          "name": "",
          "type": "uint256"
        }
      ],
      "stateMutability": "view",
      "type": "function",
      "constant": true
    },
    {
      "inputs": [],
      "name": "getState",
      "outputs": [
        {
          "internalType": "enum EventWager.States",
          "name": "",
          "type": "uint8"
        }
      ],
      "stateMutability": "view",
      "type": "function",
      "constant": true
    }
  ],
  "bytecode": "0x60806040523480156200001157600080fd5b5060405162001f3d38038062001f3d833981016040819052620000349162000150565b60048054336001600160a01b0319909116179055600080546001600160a81b03191660ff196101006001600160a01b038516021617905560408051808201909152600e8082526d1b9d5b1b1f1f09899f1f1b9d5b1b60921b6020909201918252620000a291600591620000aa565b5050620001bf565b828054620000b89062000182565b90600052602060002090601f016020900481019282620000dc576000855562000127565b82601f10620000f757805160ff191683800117855562000127565b8280016001018555821562000127579182015b82811115620001275782518255916020019190600101906200010a565b506200013592915062000139565b5090565b5b808211156200013557600081556001016200013a565b6000602082840312156200016357600080fd5b81516001600160a01b03811681146200017b57600080fd5b9392505050565b600181811c908216806200019757607f821691505b60208210811415620001b957634e487b7160e01b600052602260045260246000fd5b50919050565b611d6e80620001cf6000396000f3fe6080604052600436106101815760003560e01c80637e9a8685116100d1578063b171bcf01161008a578063cacc0efb11610064578063cacc0efb146104a5578063d28c69a9146104de578063d48f1952146104fe578063d7336a071461052057600080fd5b8063b171bcf014610461578063b4f543fd14610476578063c19d93fb1461048b57600080fd5b80637e9a86851461038c578063806ec6f7146103c55780638591cdd6146103da578063893d20e8146103ef5780638da5cb5b14610421578063af4215641461044157600080fd5b806343dabeec1161013e57806357cae4241161011857806357cae424146102c65780635a1e6ca1146102ff578063620996df1461031f578063737320241461033f57600080fd5b806343dabeec1461027a57806343dc89061461029a578063574479e6146102b057600080fd5b806315ac534d146101865780631865c57d1461019d5780632471de92146101c75780632f0fa73714610228578063403c9fa81461023b57806342b39a5e1461025a575b600080fd5b34801561019257600080fd5b5061019b610536565b005b3480156101a957600080fd5b5060005460ff165b6040516101be9190611af1565b60405180910390f35b3480156101d357600080fd5b506101e76101e2366004611a30565b6105ad565b604080516001600160a01b0390981688526020880196909652948601939093526060850191909152608084015260a0830152151560c082015260e0016101be565b61019b610236366004611a62565b610609565b34801561024757600080fd5b506001545b6040519081526020016101be565b34801561026657600080fd5b5061024c610275366004611a84565b610cb4565b34801561028657600080fd5b5061019b6102953660046119cc565b610cd2565b3480156102a657600080fd5b5061024c60035481565b3480156102bc57600080fd5b5061024c60015481565b3480156102d257600080fd5b5061024c6102e1366004611965565b6001600160a01b031660009081526006602052604090206005015490565b34801561030b57600080fd5b5061019b61031a366004611a30565b610da6565b34801561032b57600080fd5b5061019b61033a366004611965565b6115c5565b34801561034b57600080fd5b5061037c61035a366004611965565b6001600160a01b03166000908152600660208190526040909120015460ff1690565b60405190151581526020016101be565b34801561039857600080fd5b5061024c6103a7366004611965565b6001600160a01b031660009081526006602052604090206001015490565b3480156103d157600080fd5b5060085461024c565b3480156103e657600080fd5b5060075461024c565b3480156103fb57600080fd5b506004546001600160a01b03165b6040516001600160a01b0390911681526020016101be565b34801561042d57600080fd5b50600454610409906001600160a01b031681565b34801561044d57600080fd5b5061019b61045c366004611980565b611639565b34801561046d57600080fd5b5060035461024c565b34801561048257600080fd5b5060025461024c565b34801561049757600080fd5b506000546101b19060ff1681565b3480156104b157600080fd5b5061024c6104c0366004611965565b6001600160a01b031660009081526006602052604090206002015490565b3480156104ea57600080fd5b506101e76104f9366004611a30565b611716565b34801561050a57600080fd5b50610513611726565b6040516101be9190611b19565b34801561052c57600080fd5b5061024c60025481565b6004546001600160a01b031633146105695760405162461bcd60e51b815260040161056090611b4c565b60405180910390fd5b60018060005460ff16600181111561058357610583611ce0565b146105a05760405162461bcd60e51b815260040161056090611b83565b506000805460ff19169055565b600781815481106105bd57600080fd5b600091825260209091206007909102018054600182015460028301546003840154600485015460058601546006909601546001600160a01b039095169650929491939092919060ff1687565b60018060005460ff16600181111561062357610623611ce0565b146106405760405162461bcd60e51b815260040161056090611b83565b8261068d5760405162461bcd60e51b815260206004820152601c60248201527f4e6f7420612076616c6964207369646520746f207761676572206f6e000000006044820152606401610560565b60008054604051636eb1769f60e11b81523360048201523060248201526101009091046001600160a01b03169063dd62ed3e9060440160206040518083038186803b1580156106db57600080fd5b505afa1580156106ef573d6000803e3d6000fd5b505050506040513d601f19601f820116820180604052508101906107139190611a49565b9050828110156107655760405162461bcd60e51b815260206004820152601960248201527f436865636b2074686520746f6b656e20616c6c6f77616e6365000000000000006044820152606401610560565b826107a35760405162461bcd60e51b815260206004820152600e60248201526d043616e6e6f7420776167657220360941b6044820152606401610560565b3360009081526006602081905260409091209081015460ff161561081c5760405162461bcd60e51b815260206004820152602a60248201527f4f6e6c79203120776167657220697320616c6c6f77656420706572206576656e6044820152693a103832b9103ab9b2b960b11b6064820152608401610560565b80546001600160a01b031661083c5780546001600160a01b031916331781555b600581018590556001810154610853908590611bd8565b816001018190555084600114156109e857600681015460ff166109d257600780546001818101835560008390528354919092027fa66cc928b5edb82af9bd49922954155ab7b0942694bea4ce44661d9a8736c688810180546001600160a01b0319166001600160a01b0390931692909217909155908201547fa66cc928b5edb82af9bd49922954155ab7b0942694bea4ce44661d9a8736c68982015560028201547fa66cc928b5edb82af9bd49922954155ab7b0942694bea4ce44661d9a8736c68a82015560038201547fa66cc928b5edb82af9bd49922954155ab7b0942694bea4ce44661d9a8736c68b82015560048201547fa66cc928b5edb82af9bd49922954155ab7b0942694bea4ce44661d9a8736c68c82015560058201547fa66cc928b5edb82af9bd49922954155ab7b0942694bea4ce44661d9a8736c68d82015560068201547fa66cc928b5edb82af9bd49922954155ab7b0942694bea4ce44661d9a8736c68e909101805460ff909216151560ff199092169190911790555b836002546109e09190611bd8565b600255610b73565b8460021415610b7357600681015460ff16610b61576008805460018181018355600092909252825460079091027ff3f7a9fe364faab93b216da50a3214154f22a0a2b415b23a84c8169e8b636ee3810180546001600160a01b0319166001600160a01b0390931692909217909155908201547ff3f7a9fe364faab93b216da50a3214154f22a0a2b415b23a84c8169e8b636ee482015560028201547ff3f7a9fe364faab93b216da50a3214154f22a0a2b415b23a84c8169e8b636ee582015560038201547ff3f7a9fe364faab93b216da50a3214154f22a0a2b415b23a84c8169e8b636ee682015560048201547ff3f7a9fe364faab93b216da50a3214154f22a0a2b415b23a84c8169e8b636ee782015560058201547ff3f7a9fe364faab93b216da50a3214154f22a0a2b415b23a84c8169e8b636ee882015560068201547ff3f7a9fe364faab93b216da50a3214154f22a0a2b415b23a84c8169e8b636ee9909101805460ff909216151560ff199092169190911790555b83600354610b6f9190611bd8565b6003555b60068101805460ff1916600190811790915554610b91908590611bd8565b600155600080546040516323b872dd60e01b8152336004820152306024820152604481018790526101009091046001600160a01b0316906323b872dd90606401602060405180830381600087803b158015610beb57600080fd5b505af1158015610bff573d6000803e3d6000fd5b505050506040513d601f19601f82011682018060405250810190610c2391906119aa565b9050600181151514610c775760405162461bcd60e51b815260206004820152601860248201527f546f6b656e207472616e73666572206661696c6564203a2800000000000000006044820152606401610560565b60405185815233907fd999bf9c58c4c03a1b473b74d5bbd4464a5b2b5a43ae991bbcbcd0d78f7ed32b9060200160405180910390a2505050505050565b6000610cca83610cc486856117b8565b906117cb565b949350505050565b6004546001600160a01b03163314610cfc5760405162461bcd60e51b815260040161056090611b4c565b60008060005460ff166001811115610d1657610d16611ce0565b14610d335760405162461bcd60e51b815260040161056090611b83565b6000805460ff19166001179055604051610d539084908490602001611ab0565b60405160208183030381529060405260059080519060200190610d77929190611823565b506040517f1f713caed01d6b0aaf9acc22165a1c29b73c5d2a7b4f71b5a80c6ade5da9f43a90600090a1505050565b6004546001600160a01b03163314610dd05760405162461bcd60e51b815260040161056090611b4c565b6000805460ff19169055600181141561102a576007545b8015610f595760006007610dfc600184611c31565b81548110610e0c57610e0c611d0c565b906000526020600020906007020190506000610e318260010154600254600154610cb4565b60008054845460405163a9059cbb60e01b81526001600160a01b0391821660048201526024810185905293945091926101009091049091169063a9059cbb90604401602060405180830381600087803b158015610e8d57600080fd5b505af1158015610ea1573d6000803e3d6000fd5b505050506040513d601f19601f82011682018060405250810190610ec591906119aa565b8354909150610edd906001600160a01b0316836117d7565b6007805480610eee57610eee611cf6565b60008281526020812060076000199093019283020180546001600160a01b0319168155600181018290556002810182905560038101829055600481018290556005810191909155600601805460ff19169055905550829150610f51905081611c78565b915050610de7565b506008545b80156110245760006008610f73600184611c31565b81548110610f8357610f83611d0c565b6000918252602082206007909102018054909250610fac916001600160a01b03909116906117d7565b6008805480610fbd57610fbd611cf6565b60008281526020812060076000199093019283020180546001600160a01b0319168155600181018290556002810182905560038101829055600481018290556005810191909155600601805460ff191690559055508061101c81611c78565b915050610f5e565b50611540565b8060021415611274576008545b80156111a9576000600861104c600184611c31565b8154811061105c5761105c611d0c565b9060005260206000209060070201905060006110818260010154600354600154610cb4565b60008054845460405163a9059cbb60e01b81526001600160a01b0391821660048201526024810185905293945091926101009091049091169063a9059cbb90604401602060405180830381600087803b1580156110dd57600080fd5b505af11580156110f1573d6000803e3d6000fd5b505050506040513d601f19601f8201168201806040525081019061111591906119aa565b835490915061112d906001600160a01b0316836117d7565b600880548061113e5761113e611cf6565b60008281526020812060076000199093019283020180546001600160a01b0319168155600181018290556002810182905560038101829055600481018290556005810191909155600601805460ff191690559055508291506111a1905081611c78565b915050611037565b506007545b801561102457600060076111c3600184611c31565b815481106111d3576111d3611d0c565b60009182526020822060079091020180549092506111fc916001600160a01b03909116906117d7565b600780548061120d5761120d611cf6565b60008281526020812060076000199093019283020180546001600160a01b0319168155600181018290556002810182905560038101829055600481018290556005810191909155600601805460ff191690559055508061126c81611c78565b9150506111ae565b80611540576007545b80156113db5760006007611292600184611c31565b815481106112a2576112a2611d0c565b6000918252602082208254600792909202018054600182015460405163a9059cbb60e01b81526001600160a01b03928316600482015260248101919091529194506101009092049091169063a9059cbb90604401602060405180830381600087803b15801561131057600080fd5b505af1158015611324573d6000803e3d6000fd5b505050506040513d601f19601f8201168201806040525081019061134891906119aa565b8254909150611361906001600160a01b031660006117d7565b600780548061137257611372611cf6565b60008281526020812060076000199093019283020180546001600160a01b0319168155600181018290556002810182905560038101829055600481018290556005810191909155600601805460ff191690559055508190506113d381611c78565b91505061127d565b506008545b801561153e57600060086113f5600184611c31565b8154811061140557611405611d0c565b6000918252602082208254600792909202018054600182015460405163a9059cbb60e01b81526001600160a01b03928316600482015260248101919091529194506101009092049091169063a9059cbb90604401602060405180830381600087803b15801561147357600080fd5b505af1158015611487573d6000803e3d6000fd5b505050506040513d601f19601f820116820180604052508101906114ab91906119aa565b82549091506114c4906001600160a01b031660006117d7565b60088054806114d5576114d5611cf6565b60008281526020812060076000199093019283020180546001600160a01b0319168155600181018290556002810182905560038101829055600481018290556005810191909155600601805460ff1916905590555081905061153681611c78565b9150506113e0565b505b6000600281905560035560408051808201909152600e8082526d1b9d5b1b1f1f09899f1f1b9d5b1b60921b602090920191825261157f91600591611823565b506001546040805183815260208101929092527f9a9cfeded2c9b80a81abfac2f5e361da5dc2efe83cd9cad42aa53ef224a725bb910160405180910390a1506000600155565b6004546001600160a01b031633146115ef5760405162461bcd60e51b815260040161056090611b4c565b600480546001600160a01b0319166001600160a01b0383169081179091556040517fa6464c781ecbb4d23e37cf6a9fad88b97d74a7fedcac2c240305fdda27f0d3c490600090a250565b6004546001600160a01b031633146116635760405162461bcd60e51b815260040161056090611b4c565b6000546040516340c10f1960e01b81526001600160a01b03848116600483015260248201849052610100909204909116906340c10f1990604401600060405180830381600087803b1580156116b757600080fd5b505af11580156116cb573d6000803e3d6000fd5b50505050816001600160a01b03167fc3fb6c98272d7a0d5dc26727b61c00ece2e5bf3dbdc0284659e28d441c1ce06c8260405161170a91815260200190565b60405180910390a25050565b600881815481106105bd57600080fd5b60606005805461173590611c8f565b80601f016020809104026020016040519081016040528092919081815260200182805461176190611c8f565b80156117ae5780601f10611783576101008083540402835291602001916117ae565b820191906000526020600020905b81548152906001019060200180831161179157829003601f168201915b5050505050905090565b60006117c48284611c12565b9392505050565b60006117c48284611bf0565b6001600160a01b038216600090815260066020526040902060028101546117ff908390611bd8565b600282015560068101805460ff191690556000600582018190556001909101555050565b82805461182f90611c8f565b90600052602060002090601f0160209004810192826118515760008555611897565b82601f1061186a57805160ff1916838001178555611897565b82800160010185558215611897579182015b8281111561189757825182559160200191906001019061187c565b506118a39291506118a7565b5090565b5b808211156118a357600081556001016118a8565b80356001600160a01b03811681146118d357600080fd5b919050565b600082601f8301126118e957600080fd5b813567ffffffffffffffff8082111561190457611904611d22565b604051601f8301601f19908116603f0116810190828211818310171561192c5761192c611d22565b8160405283815286602085880101111561194557600080fd5b836020870160208301376000602085830101528094505050505092915050565b60006020828403121561197757600080fd5b6117c4826118bc565b6000806040838503121561199357600080fd5b61199c836118bc565b946020939093013593505050565b6000602082840312156119bc57600080fd5b815180151581146117c457600080fd5b600080604083850312156119df57600080fd5b823567ffffffffffffffff808211156119f757600080fd5b611a03868387016118d8565b93506020850135915080821115611a1957600080fd5b50611a26858286016118d8565b9150509250929050565b600060208284031215611a4257600080fd5b5035919050565b600060208284031215611a5b57600080fd5b5051919050565b60008060408385031215611a7557600080fd5b50508035926020909101359150565b600080600060608486031215611a9957600080fd5b505081359360208301359350604090920135919050565b60008351611ac2818460208801611c48565b651f1f09899f1f60d21b9083019081528351611ae5816006840160208801611c48565b01600601949350505050565b6020810160028310611b1357634e487b7160e01b600052602160045260246000fd5b91905290565b6020815260008251806020840152611b38816040850160208701611c48565b601f01601f19169190910160400192915050565b6020808252601c908201527f546869732066756e6374696f6e206973206f776e65722d6f6e6c792e00000000604082015260600190565b60208082526035908201527f4e6f74207065726d6974746564207768696c6520636f6e747261637420697320604082015274696e2061206e6f2d62657474696e6720737461746560581b606082015260800190565b60008219821115611beb57611beb611cca565b500190565b600082611c0d57634e487b7160e01b600052601260045260246000fd5b500490565b6000816000190483118215151615611c2c57611c2c611cca565b500290565b600082821015611c4357611c43611cca565b500390565b60005b83811015611c63578181015183820152602001611c4b565b83811115611c72576000848401525b50505050565b600081611c8757611c87611cca565b506000190190565b600181811c90821680611ca357607f821691505b60208210811415611cc457634e487b7160e01b600052602260045260246000fd5b50919050565b634e487b7160e01b600052601160045260246000fd5b634e487b7160e01b600052602160045260246000fd5b634e487b7160e01b600052603160045260246000fd5b634e487b7160e01b600052603260045260246000fd5b634e487b7160e01b600052604160045260246000fdfea26469706673582212201084ffeae039973ad7c96a421728e4d186561d44dab0c4c45d8be94c8c4cf01464736f6c63430008060033",
  "immutableReferences": {},
  "source": "pragma solidity ^0.8.0;\n// pragma experimental ABIEncoderV2;\nimport \"./Token.sol\";\nimport \"@openzeppelin/contracts/utils/math/SafeMath.sol\";\n// import \"./LinkedList.sol\"\n\ncontract EventWager\n{\n    using SafeMath for uint256;\n    enum States {\n        BettingClosed, BettingOpen\n    }\n\n    States public state;\n    Token private token;\n    uint256 public currentPot;\n    uint256 public potFor;\n    uint256 public potAgainst;\n    address public owner;\n    string sides;\n\n    struct UserInfo\n    {   \n        address userAddress;\n        uint256 currentWager;\n        uint256 totalWinnings;\n        uint256 totalLosses;\n        uint256 pendingWinnings;\n        uint256 side;\n        bool isDeposited;\n    }\n\n    event Wager(address indexed user, uint256 amount);\n    event Withdraw(address indexed user, uint256 amount);\n    event RoundStart();\n    event BettingClosed();\n    event RoundEnd(uint256 winningSide, uint256 amount);\n    event TokensRequested(address indexed user, uint256 amount);\n    event PassOwnership(address indexed user);\n    \n    mapping(address => UserInfo) private userInfo;\n    UserInfo[] public usersFor;\n    UserInfo[] public usersAgainst;\n    \n\n    constructor(Token _token) \n    {\n        owner = msg.sender;\n        token = _token;\n        state = States.BettingClosed;\n        sides = 'null||&&||null';\n    }\n    modifier onlyOwner(){\n        require(msg.sender == owner, \"This function is owner-only.\");\n        _;\n    }\n    modifier onlyState(States expected) {\n        require(state == expected, \"Not permitted while contract is in a no-betting state\");\n        _;\n    }\n    function requestTokens(address payee, uint256 _amount) public onlyOwner{\n        token.mint(payee, _amount);\n        emit TokensRequested(payee, _amount);\n    }\n    function beginRound(string memory side1, string memory side2) public onlyOwner onlyState(States.BettingClosed) {\n        state = States.BettingOpen;\n        \n        sides = string(abi.encodePacked(side1, \"||&&||\", side2));\n        emit RoundStart();\n    }\n\n    function getPot() public view returns (uint256) {\n        return currentPot;\n    }\n\n    function getPotFor() public view returns (uint256) {\n        return potFor;\n    }\n\n    function getPotAgainst() public view returns (uint256) {\n        return potAgainst;\n    }\n    \n    function wager(uint256 side, uint256 _amount) public payable onlyState(States.BettingOpen) { // Side:0 Not Entered, 1:For, 2:Against\n        require(side != 0, \"Not a valid side to wager on\");\n        uint256 allowance = token.allowance(msg.sender, address(this));\n        require(allowance >= _amount, \"Check the token allowance\");\n        require(_amount != 0, \"Cannot wager 0\");\n        UserInfo storage user = userInfo[msg.sender];\n        require(user.isDeposited == false, \"Only 1 wager is allowed per event per user\");\n        if(user.userAddress == address(0)) { user.userAddress = msg.sender; }\n        user.side = side;\n        user.currentWager = user.currentWager + _amount;\n        if(side == 1) { \n            if(user.isDeposited == false) { usersFor.push(user);}\n            potFor = potFor + _amount; \n        }\n        else if(side == 2) { \n            if(user.isDeposited == false ) { usersAgainst.push(user); }\n            potAgainst = potAgainst + _amount;\n        }\n        user.isDeposited = true;\n\n\n        currentPot = currentPot + _amount;\n        bool transferSuccess = token.transferFrom(msg.sender, address(this), _amount);\n        require(transferSuccess == true, \"Token transfer failed :(\");\n\n        emit Wager(msg.sender, _amount);\n    }\n\n    function endRound(uint256 winningSide) public onlyOwner { // Side:0 Draw, 1:For 2:Against\n    state = States.BettingClosed;\n        if(winningSide == 1){ // Handle the case when 'for' wins\n            for(uint i = usersFor.length; i > 0; i--){ // Handle the Winners\n                UserInfo storage user = usersFor[i-1];\n                uint256 amnt = calcReward(user.currentWager, potFor, currentPot); // reward = (deposited / winningSideTotal) * totalPot\n                bool transferSuccess = token.transfer(user.userAddress, amnt);\n\n                resetUserData(user.userAddress, amnt);\n                usersFor.pop(); // Reset the array\n            }\n            for(uint i = usersAgainst.length; i > 0; i--) { // Handle the losers\n                UserInfo storage user = usersAgainst[i-1];\n                resetUserData(user.userAddress, 0);\n                usersAgainst.pop();\n            }\n        }\n        else if(winningSide == 2) // Handle the case when 'against' wins\n        {\n            for(uint i = usersAgainst.length; i > 0; i--){\n                UserInfo storage user = usersAgainst[i-1];\n                uint256 amnt = calcReward(user.currentWager, potAgainst, currentPot); // reward = (deposited / winningSideTotal) * totalPot\n                bool transferSuccess = token.transfer(user.userAddress, amnt);\n\n                resetUserData(user.userAddress, amnt);\n                usersAgainst.pop();\n            }\n            for(uint i = usersFor.length; i > 0; i--) {\n                UserInfo storage user = usersFor[i-1];\n                resetUserData(user.userAddress, 0);\n                usersFor.pop();\n            }\n        }\n        else if(winningSide == 0) { // Handle a draw\n            for(uint i = usersFor.length; i > 0; i--) {\n                UserInfo storage user = usersFor[i-1];\n                bool transferSuccess = token.transfer(user.userAddress, user.currentWager); // Return deposited funds\n                resetUserData(user.userAddress, 0);\n                usersFor.pop();\n            }\n            for(uint i = usersAgainst.length; i > 0; i--) {\n                UserInfo storage user = usersAgainst[i-1];\n                bool transferSuccess = token.transfer(user.userAddress, user.currentWager);\n                resetUserData(user.userAddress, 0);\n                usersAgainst.pop();\n            }\n        }\n        \n        potFor = 0;\n        potAgainst = 0;\n        sides = 'null||&&||null';\n        \n\n        emit RoundEnd(winningSide, currentPot);\n        currentPot = 0;\n    }\n\n    function resetUserData(address _address, uint256 _amount) internal {\n        UserInfo storage user = userInfo[_address];\n        user.totalWinnings = user.totalWinnings + _amount;\n        user.isDeposited = false;\n        user.side = 0;\n        user.currentWager = 0;\n    }\n\n    function getWager(address _address) public view returns (uint256)\n    {\n        UserInfo storage user = userInfo[_address];\n        return user.currentWager;\n    }\n    function getTotalWinnings(address _address) public view returns (uint256) {\n        UserInfo storage user = userInfo[_address];\n        return user.totalWinnings;\n    }\n\n    function closeBetting() public onlyOwner onlyState(States.BettingOpen) {\n        state = States.BettingClosed;\n    }\n\n    function isDeposited(address _address) public view returns (bool) {\n        UserInfo storage user = userInfo[_address];\n        return user.isDeposited;\n    }\n\n    function calcReward(uint256 _currentWager, uint256 _sidePot, uint256 _totalPot) public view returns (uint256){\n        return (_currentWager.mul(_totalPot)).div(_sidePot);\n    }\n\n    function getUserSide(address _address) public view returns (uint256){\n        UserInfo storage user = userInfo[_address];\n        return user.side;\n    }\n\n    function getSides() public view returns (string memory) {\n        return sides;\n    }\n\n    function getOwner() public view returns (address) {\n        return owner;\n    }\n\n    function passOwnership(address _address) public onlyOwner {\n        owner = _address;\n        emit PassOwnership(_address);\n    }\n\n    function getFor() public view returns (uint256){     \n        return usersFor.length;\n    }\n    function getAgainst() public view returns (uint256){\n        return usersAgainst.length;\n    }\n\n    function getState() public view returns (States) {\n        return state;\n    }\n}",
  "sourcePath": "/home/zach/projects/eventwager/eventwager-back/contracts/EventWager.sol",
  "compiler": {
    "name": "solc",
    "version": "0.8.6+commit.11564f7e.Emscripten.clang"
  },
  "schemaVersion": "3.4.1",
  "updatedAt": "2021-08-02T01:30:44.487Z",
  "networkType": "ethereum",
  "devdoc": {
    "kind": "dev",
    "methods": {},
    "version": 1
  },
  "userdoc": {
    "kind": "user",
    "methods": {},
    "version": 1
  }
}