{
  "contractName": "EventWager",
  "abi": [
    {
      "inputs": [
        {
          "internalType": "contract Token",
          "name": "_token",
          "type": "address"
        }
      ],
      "stateMutability": "nonpayable",
      "type": "constructor"
    },
    {
      "anonymous": false,
      "inputs": [],
      "name": "BettingClosed",
      "type": "event"
    },
    {
      "anonymous": false,
      "inputs": [
        {
          "indexed": true,
          "internalType": "address",
          "name": "user",
          "type": "address"
        }
      ],
      "name": "PassOwnership",
      "type": "event"
    },
    {
      "anonymous": false,
      "inputs": [
        {
          "indexed": true,
          "internalType": "bytes32",
          "name": "role",
          "type": "bytes32"
        },
        {
          "indexed": true,
          "internalType": "bytes32",
          "name": "previousAdminRole",
          "type": "bytes32"
        },
        {
          "indexed": true,
          "internalType": "bytes32",
          "name": "newAdminRole",
          "type": "bytes32"
        }
      ],
      "name": "RoleAdminChanged",
      "type": "event"
    },
    {
      "anonymous": false,
      "inputs": [
        {
          "indexed": true,
          "internalType": "bytes32",
          "name": "role",
          "type": "bytes32"
        },
        {
          "indexed": true,
          "internalType": "address",
          "name": "account",
          "type": "address"
        },
        {
          "indexed": true,
          "internalType": "address",
          "name": "sender",
          "type": "address"
        }
      ],
      "name": "RoleGranted",
      "type": "event"
    },
    {
      "anonymous": false,
      "inputs": [
        {
          "indexed": true,
          "internalType": "bytes32",
          "name": "role",
          "type": "bytes32"
        },
        {
          "indexed": true,
          "internalType": "address",
          "name": "account",
          "type": "address"
        },
        {
          "indexed": true,
          "internalType": "address",
          "name": "sender",
          "type": "address"
        }
      ],
      "name": "RoleRevoked",
      "type": "event"
    },
    {
      "anonymous": false,
      "inputs": [
        {
          "indexed": false,
          "internalType": "uint256",
          "name": "winningSide",
          "type": "uint256"
        },
        {
          "indexed": false,
          "internalType": "uint256",
          "name": "amount",
          "type": "uint256"
        }
      ],
      "name": "RoundEnd",
      "type": "event"
    },
    {
      "anonymous": false,
      "inputs": [],
      "name": "RoundStart",
      "type": "event"
    },
    {
      "anonymous": false,
      "inputs": [
        {
          "indexed": true,
          "internalType": "address",
          "name": "user",
          "type": "address"
        },
        {
          "indexed": false,
          "internalType": "uint256",
          "name": "amount",
          "type": "uint256"
        }
      ],
      "name": "TokensRequested",
      "type": "event"
    },
    {
      "anonymous": false,
      "inputs": [
        {
          "indexed": true,
          "internalType": "address",
          "name": "user",
          "type": "address"
        },
        {
          "indexed": false,
          "internalType": "uint256",
          "name": "amount",
          "type": "uint256"
        }
      ],
      "name": "Wager",
      "type": "event"
    },
    {
      "anonymous": false,
      "inputs": [
        {
          "indexed": true,
          "internalType": "address",
          "name": "user",
          "type": "address"
        },
        {
          "indexed": false,
          "internalType": "uint256",
          "name": "amount",
          "type": "uint256"
        }
      ],
      "name": "Withdraw",
      "type": "event"
    },
    {
      "inputs": [],
      "name": "DEFAULT_ADMIN_ROLE",
      "outputs": [
        {
          "internalType": "bytes32",
          "name": "",
          "type": "bytes32"
        }
      ],
      "stateMutability": "view",
      "type": "function",
      "constant": true
    },
    {
      "inputs": [],
      "name": "OWNER_ROLE",
      "outputs": [
        {
          "internalType": "bytes32",
          "name": "",
          "type": "bytes32"
        }
      ],
      "stateMutability": "view",
      "type": "function",
      "constant": true
    },
    {
      "inputs": [],
      "name": "currentPot",
      "outputs": [
        {
          "internalType": "uint256",
          "name": "",
          "type": "uint256"
        }
      ],
      "stateMutability": "view",
      "type": "function",
      "constant": true
    },
    {
      "inputs": [
        {
          "internalType": "bytes32",
          "name": "role",
          "type": "bytes32"
        }
      ],
      "name": "getRoleAdmin",
      "outputs": [
        {
          "internalType": "bytes32",
          "name": "",
          "type": "bytes32"
        }
      ],
      "stateMutability": "view",
      "type": "function",
      "constant": true
    },
    {
      "inputs": [
        {
          "internalType": "bytes32",
          "name": "role",
          "type": "bytes32"
        },
        {
          "internalType": "address",
          "name": "account",
          "type": "address"
        }
      ],
      "name": "grantRole",
      "outputs": [],
      "stateMutability": "nonpayable",
      "type": "function"
    },
    {
      "inputs": [
        {
          "internalType": "bytes32",
          "name": "role",
          "type": "bytes32"
        },
        {
          "internalType": "address",
          "name": "account",
          "type": "address"
        }
      ],
      "name": "hasRole",
      "outputs": [
        {
          "internalType": "bool",
          "name": "",
          "type": "bool"
        }
      ],
      "stateMutability": "view",
      "type": "function",
      "constant": true
    },
    {
      "inputs": [],
      "name": "owner",
      "outputs": [
        {
          "internalType": "address",
          "name": "",
          "type": "address"
        }
      ],
      "stateMutability": "view",
      "type": "function",
      "constant": true
    },
    {
      "inputs": [],
      "name": "potAgainst",
      "outputs": [
        {
          "internalType": "uint256",
          "name": "",
          "type": "uint256"
        }
      ],
      "stateMutability": "view",
      "type": "function",
      "constant": true
    },
    {
      "inputs": [],
      "name": "potFor",
      "outputs": [
        {
          "internalType": "uint256",
          "name": "",
          "type": "uint256"
        }
      ],
      "stateMutability": "view",
      "type": "function",
      "constant": true
    },
    {
      "inputs": [
        {
          "internalType": "bytes32",
          "name": "role",
          "type": "bytes32"
        },
        {
          "internalType": "address",
          "name": "account",
          "type": "address"
        }
      ],
      "name": "renounceRole",
      "outputs": [],
      "stateMutability": "nonpayable",
      "type": "function"
    },
    {
      "inputs": [
        {
          "internalType": "bytes32",
          "name": "role",
          "type": "bytes32"
        },
        {
          "internalType": "address",
          "name": "account",
          "type": "address"
        }
      ],
      "name": "revokeRole",
      "outputs": [],
      "stateMutability": "nonpayable",
      "type": "function"
    },
    {
      "inputs": [],
      "name": "state",
      "outputs": [
        {
          "internalType": "enum EventWager.States",
          "name": "",
          "type": "uint8"
        }
      ],
      "stateMutability": "view",
      "type": "function",
      "constant": true
    },
    {
      "inputs": [
        {
          "internalType": "bytes4",
          "name": "interfaceId",
          "type": "bytes4"
        }
      ],
      "name": "supportsInterface",
      "outputs": [
        {
          "internalType": "bool",
          "name": "",
          "type": "bool"
        }
      ],
      "stateMutability": "view",
      "type": "function",
      "constant": true
    },
    {
      "inputs": [
        {
          "internalType": "uint256",
          "name": "",
          "type": "uint256"
        }
      ],
      "name": "usersAgainst",
      "outputs": [
        {
          "internalType": "address",
          "name": "userAddress",
          "type": "address"
        },
        {
          "internalType": "uint256",
          "name": "currentWager",
          "type": "uint256"
        },
        {
          "internalType": "uint256",
          "name": "totalWinnings",
          "type": "uint256"
        },
        {
          "internalType": "uint256",
          "name": "totalLosses",
          "type": "uint256"
        },
        {
          "internalType": "uint256",
          "name": "pendingWinnings",
          "type": "uint256"
        },
        {
          "internalType": "uint256",
          "name": "side",
          "type": "uint256"
        },
        {
          "internalType": "bool",
          "name": "isDeposited",
          "type": "bool"
        }
      ],
      "stateMutability": "view",
      "type": "function",
      "constant": true
    },
    {
      "inputs": [
        {
          "internalType": "uint256",
          "name": "",
          "type": "uint256"
        }
      ],
      "name": "usersFor",
      "outputs": [
        {
          "internalType": "address",
          "name": "userAddress",
          "type": "address"
        },
        {
          "internalType": "uint256",
          "name": "currentWager",
          "type": "uint256"
        },
        {
          "internalType": "uint256",
          "name": "totalWinnings",
          "type": "uint256"
        },
        {
          "internalType": "uint256",
          "name": "totalLosses",
          "type": "uint256"
        },
        {
          "internalType": "uint256",
          "name": "pendingWinnings",
          "type": "uint256"
        },
        {
          "internalType": "uint256",
          "name": "side",
          "type": "uint256"
        },
        {
          "internalType": "bool",
          "name": "isDeposited",
          "type": "bool"
        }
      ],
      "stateMutability": "view",
      "type": "function",
      "constant": true
    },
    {
      "inputs": [
        {
          "internalType": "address",
          "name": "payee",
          "type": "address"
        },
        {
          "internalType": "uint256",
          "name": "_amount",
          "type": "uint256"
        }
      ],
      "name": "requestTokens",
      "outputs": [],
      "stateMutability": "nonpayable",
      "type": "function"
    },
    {
      "inputs": [
        {
          "internalType": "string",
          "name": "side1",
          "type": "string"
        },
        {
          "internalType": "string",
          "name": "side2",
          "type": "string"
        }
      ],
      "name": "beginRound",
      "outputs": [],
      "stateMutability": "nonpayable",
      "type": "function"
    },
    {
      "inputs": [],
      "name": "getPot",
      "outputs": [
        {
          "internalType": "uint256",
          "name": "",
          "type": "uint256"
        }
      ],
      "stateMutability": "view",
      "type": "function",
      "constant": true
    },
    {
      "inputs": [],
      "name": "getPotFor",
      "outputs": [
        {
          "internalType": "uint256",
          "name": "",
          "type": "uint256"
        }
      ],
      "stateMutability": "view",
      "type": "function",
      "constant": true
    },
    {
      "inputs": [],
      "name": "getPotAgainst",
      "outputs": [
        {
          "internalType": "uint256",
          "name": "",
          "type": "uint256"
        }
      ],
      "stateMutability": "view",
      "type": "function",
      "constant": true
    },
    {
      "inputs": [
        {
          "internalType": "uint256",
          "name": "side",
          "type": "uint256"
        },
        {
          "internalType": "uint256",
          "name": "_amount",
          "type": "uint256"
        }
      ],
      "name": "wager",
      "outputs": [],
      "stateMutability": "payable",
      "type": "function",
      "payable": true
    },
    {
      "inputs": [
        {
          "internalType": "uint256",
          "name": "winningSide",
          "type": "uint256"
        }
      ],
      "name": "endRound",
      "outputs": [],
      "stateMutability": "nonpayable",
      "type": "function"
    },
    {
      "inputs": [
        {
          "internalType": "address",
          "name": "_address",
          "type": "address"
        }
      ],
      "name": "getWager",
      "outputs": [
        {
          "internalType": "uint256",
          "name": "",
          "type": "uint256"
        }
      ],
      "stateMutability": "view",
      "type": "function",
      "constant": true
    },
    {
      "inputs": [
        {
          "internalType": "address",
          "name": "_address",
          "type": "address"
        }
      ],
      "name": "getTotalWinnings",
      "outputs": [
        {
          "internalType": "uint256",
          "name": "",
          "type": "uint256"
        }
      ],
      "stateMutability": "view",
      "type": "function",
      "constant": true
    },
    {
      "inputs": [],
      "name": "closeBetting",
      "outputs": [],
      "stateMutability": "nonpayable",
      "type": "function"
    },
    {
      "inputs": [
        {
          "internalType": "address",
          "name": "_address",
          "type": "address"
        }
      ],
      "name": "isDeposited",
      "outputs": [
        {
          "internalType": "bool",
          "name": "",
          "type": "bool"
        }
      ],
      "stateMutability": "view",
      "type": "function",
      "constant": true
    },
    {
      "inputs": [
        {
          "internalType": "uint256",
          "name": "_currentWager",
          "type": "uint256"
        },
        {
          "internalType": "uint256",
          "name": "_sidePot",
          "type": "uint256"
        },
        {
          "internalType": "uint256",
          "name": "_totalPot",
          "type": "uint256"
        }
      ],
      "name": "calcReward",
      "outputs": [
        {
          "internalType": "uint256",
          "name": "",
          "type": "uint256"
        }
      ],
      "stateMutability": "view",
      "type": "function",
      "constant": true
    },
    {
      "inputs": [
        {
          "internalType": "address",
          "name": "_address",
          "type": "address"
        }
      ],
      "name": "getUserSide",
      "outputs": [
        {
          "internalType": "uint256",
          "name": "",
          "type": "uint256"
        }
      ],
      "stateMutability": "view",
      "type": "function",
      "constant": true
    },
    {
      "inputs": [],
      "name": "getSides",
      "outputs": [
        {
          "internalType": "string",
          "name": "",
          "type": "string"
        }
      ],
      "stateMutability": "view",
      "type": "function",
      "constant": true
    },
    {
      "inputs": [],
      "name": "getOwner",
      "outputs": [
        {
          "internalType": "address",
          "name": "",
          "type": "address"
        }
      ],
      "stateMutability": "view",
      "type": "function",
      "constant": true
    },
    {
      "inputs": [
        {
          "internalType": "address",
          "name": "_address",
          "type": "address"
        }
      ],
      "name": "passOwnership",
      "outputs": [],
      "stateMutability": "nonpayable",
      "type": "function"
    },
    {
      "inputs": [],
      "name": "getFor",
      "outputs": [
        {
          "internalType": "uint256",
          "name": "",
          "type": "uint256"
        }
      ],
      "stateMutability": "view",
      "type": "function",
      "constant": true
    },
    {
      "inputs": [],
      "name": "getAgainst",
      "outputs": [
        {
          "internalType": "uint256",
          "name": "",
          "type": "uint256"
        }
      ],
      "stateMutability": "view",
      "type": "function",
      "constant": true
    },
    {
      "inputs": [],
      "name": "getState",
      "outputs": [
        {
          "internalType": "enum EventWager.States",
          "name": "",
          "type": "uint8"
        }
      ],
      "stateMutability": "view",
      "type": "function",
      "constant": true
    }
  ],
  "bytecode": "0x60806040523480156200001157600080fd5b50604051620026d5380380620026d5833981016040819052620000349162000239565b60058054336001600160a01b0319909116179055600180546001600160a81b03191660ff196101006001600160a01b038516021617905560408051808201909152600e8082526d1b9d5b1b1f1f09899f1f1b9d5b1b60921b6020909201918252620000a29160069162000193565b50600554620000dc907fb19546dff01e856fb3f010c267a7b1c60363cf8a4664e21cc89c26224620214e906001600160a01b0316620000e3565b50620002a8565b620000ef8282620000f3565b5050565b6000828152602081815260408083206001600160a01b038516845290915290205460ff16620000ef576000828152602081815260408083206001600160a01b03851684529091529020805460ff191660011790556200014f3390565b6001600160a01b0316816001600160a01b0316837f2f8788117e7eff1d82e926ec794901d17c78024a50270940304540a733656f0d60405160405180910390a45050565b828054620001a1906200026b565b90600052602060002090601f016020900481019282620001c5576000855562000210565b82601f10620001e057805160ff191683800117855562000210565b8280016001018555821562000210579182015b8281111562000210578251825591602001919060010190620001f3565b506200021e92915062000222565b5090565b5b808211156200021e576000815560010162000223565b6000602082840312156200024c57600080fd5b81516001600160a01b03811681146200026457600080fd5b9392505050565b600181811c908216806200028057607f821691505b60208210811415620002a257634e487b7160e01b600052602260045260246000fd5b50919050565b61241d80620002b86000396000f3fe6080604052600436106101f95760003560e01c80637e9a86851161010d578063b171bcf0116100a0578063d28c69a91161006f578063d28c69a91461061a578063d48f19521461063a578063d547741f1461065c578063d7336a071461067c578063e58378bb1461069257600080fd5b8063b171bcf01461059d578063b4f543fd146105b2578063c19d93fb146105c7578063cacc0efb146105e157600080fd5b80638da5cb5b116100dc5780638da5cb5b1461052857806391d1485414610548578063a217fddf14610568578063af4215641461057d57600080fd5b80637e9a868514610493578063806ec6f7146104cc5780638591cdd6146104e1578063893d20e8146104f657600080fd5b8063403c9fa811610190578063574479e61161015f578063574479e6146103c857806357cae424146103de5780635a1e6ca114610417578063620996df14610437578063737320241461045757600080fd5b8063403c9fa81461035d57806342b39a5e1461037257806343dabeec1461039257806343dc8906146103b257600080fd5b8063248a9ca3116101cc578063248a9ca3146102cc5780632f0fa7371461030a5780632f2ff15d1461031d57806336568abe1461033d57600080fd5b806301ffc9a7146101fe57806315ac534d146102335780631865c57d1461024a5780632471de921461026b575b600080fd5b34801561020a57600080fd5b5061021e610219366004611fd5565b6106b4565b60405190151581526020015b60405180910390f35b34801561023f57600080fd5b506102486106eb565b005b34801561025657600080fd5b5060015460ff165b60405161022a9190612180565b34801561027757600080fd5b5061028b610286366004611f90565b61076c565b604080516001600160a01b0390981688526020880196909652948601939093526060850191909152608084015260a0830152151560c082015260e00161022a565b3480156102d857600080fd5b506102fc6102e7366004611f90565b60009081526020819052604090206001015490565b60405190815260200161022a565b61024861031836600461207c565b6107c8565b34801561032957600080fd5b50610248610338366004611fa9565b610e74565b34801561034957600080fd5b50610248610358366004611fa9565b610e9f565b34801561036957600080fd5b506002546102fc565b34801561037e57600080fd5b506102fc61038d36600461209e565b610f1d565b34801561039e57600080fd5b506102486103ad366004611fff565b610f3b565b3480156103be57600080fd5b506102fc60045481565b3480156103d457600080fd5b506102fc60025481565b3480156103ea57600080fd5b506102fc6103f9366004611f29565b6001600160a01b031660009081526007602052604090206005015490565b34801561042357600080fd5b50610248610432366004611f90565b611018565b34801561044357600080fd5b50610248610452366004611f29565b61183d565b34801561046357600080fd5b5061021e610472366004611f29565b6001600160a01b031660009081526007602052604090206006015460ff1690565b34801561049f57600080fd5b506102fc6104ae366004611f29565b6001600160a01b031660009081526007602052604090206001015490565b3480156104d857600080fd5b506009546102fc565b3480156104ed57600080fd5b506008546102fc565b34801561050257600080fd5b506005546001600160a01b03165b6040516001600160a01b03909116815260200161022a565b34801561053457600080fd5b50600554610510906001600160a01b031681565b34801561055457600080fd5b5061021e610563366004611fa9565b6118bb565b34801561057457600080fd5b506102fc600081565b34801561058957600080fd5b50610248610598366004611f44565b6118e4565b3480156105a957600080fd5b506004546102fc565b3480156105be57600080fd5b506003546102fc565b3480156105d357600080fd5b5060015461025e9060ff1681565b3480156105ed57600080fd5b506102fc6105fc366004611f29565b6001600160a01b031660009081526007602052604090206002015490565b34801561062657600080fd5b5061028b610635366004611f90565b6119cb565b34801561064657600080fd5b5061064f6119db565b60405161022a91906121a8565b34801561066857600080fd5b50610248610677366004611fa9565b611a6d565b34801561068857600080fd5b506102fc60035481565b34801561069e57600080fd5b506102fc6000805160206123c883398151915281565b60006001600160e01b03198216637965db0b60e01b14806106e557506301ffc9a760e01b6001600160e01b03198316145b92915050565b6107036000805160206123c8833981519152336118bb565b6107285760405162461bcd60e51b815260040161071f906121db565b60405180910390fd5b6001806001805460ff16908111156107425761074261236f565b1461075f5760405162461bcd60e51b815260040161071f90612212565b506001805460ff19169055565b6008818154811061077c57600080fd5b600091825260209091206007909102018054600182015460028301546003840154600485015460058601546006909601546001600160a01b039095169650929491939092919060ff1687565b6001806001805460ff16908111156107e2576107e261236f565b146107ff5760405162461bcd60e51b815260040161071f90612212565b8261084c5760405162461bcd60e51b815260206004820152601c60248201527f4e6f7420612076616c6964207369646520746f207761676572206f6e00000000604482015260640161071f565b600154604051636eb1769f60e11b815233600482015230602482015260009161010090046001600160a01b03169063dd62ed3e9060440160206040518083038186803b15801561089b57600080fd5b505afa1580156108af573d6000803e3d6000fd5b505050506040513d601f19601f820116820180604052508101906108d39190612063565b9050828110156109255760405162461bcd60e51b815260206004820152601960248201527f436865636b2074686520746f6b656e20616c6c6f77616e636500000000000000604482015260640161071f565b826109635760405162461bcd60e51b815260206004820152600e60248201526d043616e6e6f7420776167657220360941b604482015260640161071f565b336000908152600760205260409020600681015460ff16156109da5760405162461bcd60e51b815260206004820152602a60248201527f4f6e6c79203120776167657220697320616c6c6f77656420706572206576656e6044820152693a103832b9103ab9b2b960b11b606482015260840161071f565b80546001600160a01b03166109fa5780546001600160a01b031916331781555b600581018590556001810154610a11908590612267565b81600101819055508460011415610ba857600681015460ff16610b92576008805460018181018355600092909252825460079091027ff3f7a9fe364faab93b216da50a3214154f22a0a2b415b23a84c8169e8b636ee3810180546001600160a01b0319166001600160a01b0390931692909217909155908201547ff3f7a9fe364faab93b216da50a3214154f22a0a2b415b23a84c8169e8b636ee482015560028201547ff3f7a9fe364faab93b216da50a3214154f22a0a2b415b23a84c8169e8b636ee582015560038201547ff3f7a9fe364faab93b216da50a3214154f22a0a2b415b23a84c8169e8b636ee682015560048201547ff3f7a9fe364faab93b216da50a3214154f22a0a2b415b23a84c8169e8b636ee782015560058201547ff3f7a9fe364faab93b216da50a3214154f22a0a2b415b23a84c8169e8b636ee882015560068201547ff3f7a9fe364faab93b216da50a3214154f22a0a2b415b23a84c8169e8b636ee9909101805460ff909216151560ff199092169190911790555b83600354610ba09190612267565b600355610d33565b8460021415610d3357600681015460ff16610d21576009805460018181018355600092909252825460079091027f6e1540171b6c0c960b71a7020d9f60077f6af931a8bbf590da0223dacf75c7af810180546001600160a01b0319166001600160a01b0390931692909217909155908201547f6e1540171b6c0c960b71a7020d9f60077f6af931a8bbf590da0223dacf75c7b082015560028201547f6e1540171b6c0c960b71a7020d9f60077f6af931a8bbf590da0223dacf75c7b182015560038201547f6e1540171b6c0c960b71a7020d9f60077f6af931a8bbf590da0223dacf75c7b282015560048201547f6e1540171b6c0c960b71a7020d9f60077f6af931a8bbf590da0223dacf75c7b382015560058201547f6e1540171b6c0c960b71a7020d9f60077f6af931a8bbf590da0223dacf75c7b482015560068201547f6e1540171b6c0c960b71a7020d9f60077f6af931a8bbf590da0223dacf75c7b5909101805460ff909216151560ff199092169190911790555b83600454610d2f9190612267565b6004555b60068101805460ff19166001179055600254610d50908590612267565b6002556001546040516323b872dd60e01b81523360048201523060248201526044810186905260009161010090046001600160a01b0316906323b872dd90606401602060405180830381600087803b158015610dab57600080fd5b505af1158015610dbf573d6000803e3d6000fd5b505050506040513d601f19601f82011682018060405250810190610de39190611f6e565b9050600181151514610e375760405162461bcd60e51b815260206004820152601860248201527f546f6b656e207472616e73666572206661696c6564203a280000000000000000604482015260640161071f565b60405185815233907fd999bf9c58c4c03a1b473b74d5bbd4464a5b2b5a43ae991bbcbcd0d78f7ed32b9060200160405180910390a2505050505050565b600082815260208190526040902060010154610e908133611a93565b610e9a8383611af7565b505050565b6001600160a01b0381163314610f0f5760405162461bcd60e51b815260206004820152602f60248201527f416363657373436f6e74726f6c3a2063616e206f6e6c792072656e6f756e636560448201526e103937b632b9903337b91039b2b63360891b606482015260840161071f565b610f198282611b7b565b5050565b6000610f3383610f2d8685611be0565b90611bf3565b949350505050565b610f536000805160206123c8833981519152336118bb565b610f6f5760405162461bcd60e51b815260040161071f906121db565b6000806001805460ff1690811115610f8957610f8961236f565b14610fa65760405162461bcd60e51b815260040161071f90612212565b6001805460ff191681179055604051610fc590849084906020016120ca565b60405160208183030381529060405260069080519060200190610fe9929190611de7565b506040517f1f713caed01d6b0aaf9acc22165a1c29b73c5d2a7b4f71b5a80c6ade5da9f43a90600090a1505050565b6110306000805160206123c8833981519152336118bb565b61104c5760405162461bcd60e51b815260040161071f906121db565b6001805460ff191681558114156112a2576008545b80156111d157600060086110766001846122c0565b815481106110865761108661239b565b9060005260206000209060070201905060006110ab8260010154600354600254610f1d565b600154835460405163a9059cbb60e01b81526001600160a01b03918216600482015260248101849052929350600092610100909204169063a9059cbb90604401602060405180830381600087803b15801561110557600080fd5b505af1158015611119573d6000803e3d6000fd5b505050506040513d601f19601f8201168201806040525081019061113d9190611f6e565b8354909150611155906001600160a01b031683611bff565b600880548061116657611166612385565b60008281526020812060076000199093019283020180546001600160a01b0319168155600181018290556002810182905560038101829055600481018290556005810191909155600601805460ff191690559055508291506111c9905081612307565b915050611061565b506009545b801561129c57600060096111eb6001846122c0565b815481106111fb576111fb61239b565b6000918252602082206007909102018054909250611224916001600160a01b0390911690611bff565b600980548061123557611235612385565b60008281526020812060076000199093019283020180546001600160a01b0319168155600181018290556002810182905560038101829055600481018290556005810191909155600601805460ff191690559055508061129481612307565b9150506111d6565b506117b8565b80600214156114ea576009545b801561141f57600060096112c46001846122c0565b815481106112d4576112d461239b565b9060005260206000209060070201905060006112f98260010154600454600254610f1d565b600154835460405163a9059cbb60e01b81526001600160a01b03918216600482015260248101849052929350600092610100909204169063a9059cbb90604401602060405180830381600087803b15801561135357600080fd5b505af1158015611367573d6000803e3d6000fd5b505050506040513d601f19601f8201168201806040525081019061138b9190611f6e565b83549091506113a3906001600160a01b031683611bff565b60098054806113b4576113b4612385565b60008281526020812060076000199093019283020180546001600160a01b0319168155600181018290556002810182905560038101829055600481018290556005810191909155600601805460ff19169055905550829150611417905081612307565b9150506112af565b506008545b801561129c57600060086114396001846122c0565b815481106114495761144961239b565b6000918252602082206007909102018054909250611472916001600160a01b0390911690611bff565b600880548061148357611483612385565b60008281526020812060076000199093019283020180546001600160a01b0319168155600181018290556002810182905560038101829055600481018290556005810191909155600601805460ff19169055905550806114e281612307565b915050611424565b806117b8576008545b801561165257600060086115086001846122c0565b815481106115185761151861239b565b6000918252602082206001805460079390930290910180549181015460405163a9059cbb60e01b81526001600160a01b0393841660048201526024810191909152909450610100909204169063a9059cbb90604401602060405180830381600087803b15801561158757600080fd5b505af115801561159b573d6000803e3d6000fd5b505050506040513d601f19601f820116820180604052508101906115bf9190611f6e565b82549091506115d8906001600160a01b03166000611bff565b60088054806115e9576115e9612385565b60008281526020812060076000199093019283020180546001600160a01b0319168155600181018290556002810182905560038101829055600481018290556005810191909155600601805460ff1916905590555081905061164a81612307565b9150506114f3565b506009545b80156117b6576000600961166c6001846122c0565b8154811061167c5761167c61239b565b6000918252602082206001805460079390930290910180549181015460405163a9059cbb60e01b81526001600160a01b0393841660048201526024810191909152909450610100909204169063a9059cbb90604401602060405180830381600087803b1580156116eb57600080fd5b505af11580156116ff573d6000803e3d6000fd5b505050506040513d601f19601f820116820180604052508101906117239190611f6e565b825490915061173c906001600160a01b03166000611bff565b600980548061174d5761174d612385565b60008281526020812060076000199093019283020180546001600160a01b0319168155600181018290556002810182905560038101829055600481018290556005810191909155600601805460ff191690559055508190506117ae81612307565b915050611657565b505b6000600381905560045560408051808201909152600e8082526d1b9d5b1b1f1f09899f1f1b9d5b1b60921b60209092019182526117f791600691611de7565b506002546040805183815260208101929092527f9a9cfeded2c9b80a81abfac2f5e361da5dc2efe83cd9cad42aa53ef224a725bb910160405180910390a1506000600255565b6118556000805160206123c8833981519152336118bb565b6118715760405162461bcd60e51b815260040161071f906121db565b600580546001600160a01b0319166001600160a01b0383169081179091556040517fa6464c781ecbb4d23e37cf6a9fad88b97d74a7fedcac2c240305fdda27f0d3c490600090a250565b6000918252602082815260408084206001600160a01b0393909316845291905290205460ff1690565b6118fc6000805160206123c8833981519152336118bb565b6119185760405162461bcd60e51b815260040161071f906121db565b6001546040516340c10f1960e01b81526001600160a01b03848116600483015260248201849052610100909204909116906340c10f1990604401600060405180830381600087803b15801561196c57600080fd5b505af1158015611980573d6000803e3d6000fd5b50505050816001600160a01b03167fc3fb6c98272d7a0d5dc26727b61c00ece2e5bf3dbdc0284659e28d441c1ce06c826040516119bf91815260200190565b60405180910390a25050565b6009818154811061077c57600080fd5b6060600680546119ea9061231e565b80601f0160208091040260200160405190810160405280929190818152602001828054611a169061231e565b8015611a635780601f10611a3857610100808354040283529160200191611a63565b820191906000526020600020905b815481529060010190602001808311611a4657829003601f168201915b5050505050905090565b600082815260208190526040902060010154611a898133611a93565b610e9a8383611b7b565b611a9d82826118bb565b610f1957611ab5816001600160a01b03166014611c4b565b611ac0836020611c4b565b604051602001611ad192919061210b565b60408051601f198184030181529082905262461bcd60e51b825261071f916004016121a8565b611b0182826118bb565b610f19576000828152602081815260408083206001600160a01b03851684529091529020805460ff19166001179055611b373390565b6001600160a01b0316816001600160a01b0316837f2f8788117e7eff1d82e926ec794901d17c78024a50270940304540a733656f0d60405160405180910390a45050565b611b8582826118bb565b15610f19576000828152602081815260408083206001600160a01b0385168085529252808320805460ff1916905551339285917ff6391f5c32d9c69d2a47ea670b442974b53935d1edc7fd64eb21e047a839171b9190a45050565b6000611bec82846122a1565b9392505050565b6000611bec828461227f565b6001600160a01b03821660009081526007602052604090206002810154611c27908390612267565b600282015560068101805460ff191690556000600582018190556001909101555050565b60606000611c5a8360026122a1565b611c65906002612267565b67ffffffffffffffff811115611c7d57611c7d6123b1565b6040519080825280601f01601f191660200182016040528015611ca7576020820181803683370190505b509050600360fc1b81600081518110611cc257611cc261239b565b60200101906001600160f81b031916908160001a905350600f60fb1b81600181518110611cf157611cf161239b565b60200101906001600160f81b031916908160001a9053506000611d158460026122a1565b611d20906001612267565b90505b6001811115611d98576f181899199a1a9b1b9c1cb0b131b232b360811b85600f1660108110611d5457611d5461239b565b1a60f81b828281518110611d6a57611d6a61239b565b60200101906001600160f81b031916908160001a90535060049490941c93611d9181612307565b9050611d23565b508315611bec5760405162461bcd60e51b815260206004820181905260248201527f537472696e67733a20686578206c656e67746820696e73756666696369656e74604482015260640161071f565b828054611df39061231e565b90600052602060002090601f016020900481019282611e155760008555611e5b565b82601f10611e2e57805160ff1916838001178555611e5b565b82800160010185558215611e5b579182015b82811115611e5b578251825591602001919060010190611e40565b50611e67929150611e6b565b5090565b5b80821115611e675760008155600101611e6c565b80356001600160a01b0381168114611e9757600080fd5b919050565b600082601f830112611ead57600080fd5b813567ffffffffffffffff80821115611ec857611ec86123b1565b604051601f8301601f19908116603f01168101908282118183101715611ef057611ef06123b1565b81604052838152866020858801011115611f0957600080fd5b836020870160208301376000602085830101528094505050505092915050565b600060208284031215611f3b57600080fd5b611bec82611e80565b60008060408385031215611f5757600080fd5b611f6083611e80565b946020939093013593505050565b600060208284031215611f8057600080fd5b81518015158114611bec57600080fd5b600060208284031215611fa257600080fd5b5035919050565b60008060408385031215611fbc57600080fd5b82359150611fcc60208401611e80565b90509250929050565b600060208284031215611fe757600080fd5b81356001600160e01b031981168114611bec57600080fd5b6000806040838503121561201257600080fd5b823567ffffffffffffffff8082111561202a57600080fd5b61203686838701611e9c565b9350602085013591508082111561204c57600080fd5b5061205985828601611e9c565b9150509250929050565b60006020828403121561207557600080fd5b5051919050565b6000806040838503121561208f57600080fd5b50508035926020909101359150565b6000806000606084860312156120b357600080fd5b505081359360208301359350604090920135919050565b600083516120dc8184602088016122d7565b651f1f09899f1f60d21b90830190815283516120ff8160068401602088016122d7565b01600601949350505050565b7f416363657373436f6e74726f6c3a206163636f756e74200000000000000000008152600083516121438160178501602088016122d7565b7001034b99036b4b9b9b4b733903937b6329607d1b60179184019182015283516121748160288401602088016122d7565b01602801949350505050565b60208101600283106121a257634e487b7160e01b600052602160045260246000fd5b91905290565b60208152600082518060208401526121c78160408501602087016122d7565b601f01601f19169190910160400192915050565b6020808252601c908201527f546869732066756e6374696f6e206973206f776e65722d6f6e6c792e00000000604082015260600190565b60208082526035908201527f4e6f74207065726d6974746564207768696c6520636f6e747261637420697320604082015274696e2061206e6f2d62657474696e6720737461746560581b606082015260800190565b6000821982111561227a5761227a612359565b500190565b60008261229c57634e487b7160e01b600052601260045260246000fd5b500490565b60008160001904831182151516156122bb576122bb612359565b500290565b6000828210156122d2576122d2612359565b500390565b60005b838110156122f25781810151838201526020016122da565b83811115612301576000848401525b50505050565b60008161231657612316612359565b506000190190565b600181811c9082168061233257607f821691505b6020821081141561235357634e487b7160e01b600052602260045260246000fd5b50919050565b634e487b7160e01b600052601160045260246000fd5b634e487b7160e01b600052602160045260246000fd5b634e487b7160e01b600052603160045260246000fd5b634e487b7160e01b600052603260045260246000fd5b634e487b7160e01b600052604160045260246000fdfeb19546dff01e856fb3f010c267a7b1c60363cf8a4664e21cc89c26224620214ea26469706673582212205ed280e8920d01bc267d6892a7148c9c9e27483a661ba75f8e4326163668edea64736f6c63430008060033",
  "immutableReferences": {},
  "source": "pragma solidity ^0.8.0;\n// pragma experimental ABIEncoderV2;\nimport \"./Token.sol\";\nimport \"@openzeppelin/contracts/utils/math/SafeMath.sol\";\nimport \"@openzeppelin/contracts/access/AccessControl.sol\";\n// import \"./LinkedList.sol\"\n\ncontract EventWager is AccessControl\n{\n    using SafeMath for uint256;\n    enum States {\n        BettingClosed, BettingOpen\n    }\n\n    bytes32 public constant OWNER_ROLE = keccak256(\"OWNER_ROLE\");\n\n    States public state;\n    Token private token;\n    uint256 public currentPot;\n    uint256 public potFor;\n    uint256 public potAgainst;\n    address public owner;\n    string sides;\n\n    struct UserInfo\n    {   \n        address userAddress;\n        uint256 currentWager;\n        uint256 totalWinnings;\n        uint256 totalLosses;\n        uint256 pendingWinnings;\n        uint256 side;\n        bool isDeposited;\n    }\n\n    event Wager(address indexed user, uint256 amount);\n    event Withdraw(address indexed user, uint256 amount);\n    event RoundStart();\n    event BettingClosed();\n    event RoundEnd(uint256 winningSide, uint256 amount);\n    event TokensRequested(address indexed user, uint256 amount);\n    event PassOwnership(address indexed user);\n    \n    mapping(address => UserInfo) private userInfo;\n    UserInfo[] public usersFor;\n    UserInfo[] public usersAgainst;\n    \n\n    constructor(Token _token) \n    {\n        owner = msg.sender;\n        token = _token;\n        state = States.BettingClosed;\n        sides = 'null||&&||null';\n        _setupRole(OWNER_ROLE, owner);\n    }\n    modifier onlyOwner(){\n        require(hasRole(OWNER_ROLE, msg.sender), \"This function is owner-only.\");\n        _;\n    }\n    modifier onlyState(States expected) {\n        require(state == expected, \"Not permitted while contract is in a no-betting state\");\n        _;\n    }\n    function requestTokens(address payee, uint256 _amount) public onlyOwner{\n        token.mint(payee, _amount);\n        emit TokensRequested(payee, _amount);\n    }\n    function beginRound(string memory side1, string memory side2) public onlyOwner onlyState(States.BettingClosed) {\n        state = States.BettingOpen;\n        \n        sides = string(abi.encodePacked(side1, \"||&&||\", side2));\n        emit RoundStart();\n    }\n\n    function getPot() public view returns (uint256) {\n        return currentPot;\n    }\n\n    function getPotFor() public view returns (uint256) {\n        return potFor;\n    }\n\n    function getPotAgainst() public view returns (uint256) {\n        return potAgainst;\n    }\n    \n    function wager(uint256 side, uint256 _amount) public payable onlyState(States.BettingOpen) { // Side:0 Not Entered, 1:For, 2:Against\n        require(side != 0, \"Not a valid side to wager on\");\n        uint256 allowance = token.allowance(msg.sender, address(this));\n        require(allowance >= _amount, \"Check the token allowance\");\n        require(_amount != 0, \"Cannot wager 0\");\n        UserInfo storage user = userInfo[msg.sender];\n        require(user.isDeposited == false, \"Only 1 wager is allowed per event per user\");\n        if(user.userAddress == address(0)) { user.userAddress = msg.sender; }\n        user.side = side;\n        user.currentWager = user.currentWager + _amount;\n        if(side == 1) { \n            if(user.isDeposited == false) { usersFor.push(user);}\n            potFor = potFor + _amount; \n        }\n        else if(side == 2) { \n            if(user.isDeposited == false ) { usersAgainst.push(user); }\n            potAgainst = potAgainst + _amount;\n        }\n        user.isDeposited = true;\n\n\n        currentPot = currentPot + _amount;\n        bool transferSuccess = token.transferFrom(msg.sender, address(this), _amount);\n        require(transferSuccess == true, \"Token transfer failed :(\");\n\n        emit Wager(msg.sender, _amount);\n    }\n\n    function endRound(uint256 winningSide) public onlyOwner { // Side:0 Draw, 1:For 2:Against\n    state = States.BettingClosed;\n        if(winningSide == 1){ // Handle the case when 'for' wins\n            for(uint i = usersFor.length; i > 0; i--){ // Handle the Winners\n                UserInfo storage user = usersFor[i-1];\n                uint256 amnt = calcReward(user.currentWager, potFor, currentPot); // reward = (deposited / winningSideTotal) * totalPot\n                bool transferSuccess = token.transfer(user.userAddress, amnt);\n\n                resetUserData(user.userAddress, amnt);\n                usersFor.pop(); // Reset the array\n            }\n            for(uint i = usersAgainst.length; i > 0; i--) { // Handle the losers\n                UserInfo storage user = usersAgainst[i-1];\n                resetUserData(user.userAddress, 0);\n                usersAgainst.pop();\n            }\n        }\n        else if(winningSide == 2) // Handle the case when 'against' wins\n        {\n            for(uint i = usersAgainst.length; i > 0; i--){\n                UserInfo storage user = usersAgainst[i-1];\n                uint256 amnt = calcReward(user.currentWager, potAgainst, currentPot); // reward = (deposited / winningSideTotal) * totalPot\n                bool transferSuccess = token.transfer(user.userAddress, amnt);\n\n                resetUserData(user.userAddress, amnt);\n                usersAgainst.pop();\n            }\n            for(uint i = usersFor.length; i > 0; i--) {\n                UserInfo storage user = usersFor[i-1];\n                resetUserData(user.userAddress, 0);\n                usersFor.pop();\n            }\n        }\n        else if(winningSide == 0) { // Handle a draw\n            for(uint i = usersFor.length; i > 0; i--) {\n                UserInfo storage user = usersFor[i-1];\n                bool transferSuccess = token.transfer(user.userAddress, user.currentWager); // Return deposited funds\n                resetUserData(user.userAddress, 0);\n                usersFor.pop();\n            }\n            for(uint i = usersAgainst.length; i > 0; i--) {\n                UserInfo storage user = usersAgainst[i-1];\n                bool transferSuccess = token.transfer(user.userAddress, user.currentWager);\n                resetUserData(user.userAddress, 0);\n                usersAgainst.pop();\n            }\n        }\n        \n        potFor = 0;\n        potAgainst = 0;\n        sides = 'null||&&||null';\n        \n\n        emit RoundEnd(winningSide, currentPot);\n        currentPot = 0;\n    }\n\n    function resetUserData(address _address, uint256 _amount) internal {\n        UserInfo storage user = userInfo[_address];\n        user.totalWinnings = user.totalWinnings + _amount;\n        user.isDeposited = false;\n        user.side = 0;\n        user.currentWager = 0;\n    }\n\n    function getWager(address _address) public view returns (uint256)\n    {\n        UserInfo storage user = userInfo[_address];\n        return user.currentWager;\n    }\n    function getTotalWinnings(address _address) public view returns (uint256) {\n        UserInfo storage user = userInfo[_address];\n        return user.totalWinnings;\n    }\n\n    function closeBetting() public onlyOwner onlyState(States.BettingOpen) {\n        state = States.BettingClosed;\n    }\n\n    function isDeposited(address _address) public view returns (bool) {\n        UserInfo storage user = userInfo[_address];\n        return user.isDeposited;\n    }\n\n    function calcReward(uint256 _currentWager, uint256 _sidePot, uint256 _totalPot) public view returns (uint256){\n        return (_currentWager.mul(_totalPot)).div(_sidePot);\n    }\n\n    function getUserSide(address _address) public view returns (uint256){\n        UserInfo storage user = userInfo[_address];\n        return user.side;\n    }\n\n    function getSides() public view returns (string memory) {\n        return sides;\n    }\n\n    function getOwner() public view returns (address) {\n        return owner;\n    }\n\n    function passOwnership(address _address) public onlyOwner {\n        owner = _address;\n        emit PassOwnership(_address);\n    }\n\n    function getFor() public view returns (uint256){     \n        return usersFor.length;\n    }\n    function getAgainst() public view returns (uint256){\n        return usersAgainst.length;\n    }\n\n    function getState() public view returns (States) {\n        return state;\n    }\n}",
  "sourcePath": "/home/zach/projects/eventwager/eventwager-back/contracts/EventWager.sol",
  "compiler": {
    "name": "solc",
    "version": "0.8.6+commit.11564f7e.Emscripten.clang"
  },
  "schemaVersion": "3.4.1",
  "updatedAt": "2021-08-02T03:35:00.167Z",
  "networkType": "ethereum",
  "devdoc": {
    "kind": "dev",
    "methods": {
      "getRoleAdmin(bytes32)": {
        "details": "Returns the admin role that controls `role`. See {grantRole} and {revokeRole}. To change a role's admin, use {_setRoleAdmin}."
      },
      "grantRole(bytes32,address)": {
        "details": "Grants `role` to `account`. If `account` had not been already granted `role`, emits a {RoleGranted} event. Requirements: - the caller must have ``role``'s admin role."
      },
      "hasRole(bytes32,address)": {
        "details": "Returns `true` if `account` has been granted `role`."
      },
      "renounceRole(bytes32,address)": {
        "details": "Revokes `role` from the calling account. Roles are often managed via {grantRole} and {revokeRole}: this function's purpose is to provide a mechanism for accounts to lose their privileges if they are compromised (such as when a trusted device is misplaced). If the calling account had been granted `role`, emits a {RoleRevoked} event. Requirements: - the caller must be `account`."
      },
      "revokeRole(bytes32,address)": {
        "details": "Revokes `role` from `account`. If `account` had been granted `role`, emits a {RoleRevoked} event. Requirements: - the caller must have ``role``'s admin role."
      },
      "supportsInterface(bytes4)": {
        "details": "See {IERC165-supportsInterface}."
      }
    },
    "version": 1
  },
  "userdoc": {
    "kind": "user",
    "methods": {},
    "version": 1
  }
}